{
  "contractName": "TicTacToe",
  "abi": [
    {
      "constant": true,
      "inputs": [
        {
          "name": "",
          "type": "address"
        }
      ],
      "name": "depositBalances",
      "outputs": [
        {
          "name": "",
          "type": "uint256"
        }
      ],
      "payable": false,
      "stateMutability": "view",
      "type": "function"
    },
    {
      "constant": true,
      "inputs": [],
      "name": "currentPlayer",
      "outputs": [
        {
          "name": "",
          "type": "address"
        }
      ],
      "payable": false,
      "stateMutability": "view",
      "type": "function"
    },
    {
      "constant": true,
      "inputs": [],
      "name": "challenger",
      "outputs": [
        {
          "name": "",
          "type": "address"
        }
      ],
      "payable": false,
      "stateMutability": "view",
      "type": "function"
    },
    {
      "constant": true,
      "inputs": [],
      "name": "opponent",
      "outputs": [
        {
          "name": "",
          "type": "address"
        }
      ],
      "payable": false,
      "stateMutability": "view",
      "type": "function"
    },
    {
      "constant": true,
      "inputs": [],
      "name": "turnCount",
      "outputs": [
        {
          "name": "",
          "type": "uint8"
        }
      ],
      "payable": false,
      "stateMutability": "view",
      "type": "function"
    },
    {
      "constant": true,
      "inputs": [],
      "name": "timeAtLastTurn",
      "outputs": [
        {
          "name": "",
          "type": "uint256"
        }
      ],
      "payable": false,
      "stateMutability": "view",
      "type": "function"
    },
    {
      "constant": true,
      "inputs": [],
      "name": "gameField",
      "outputs": [
        {
          "name": "",
          "type": "uint32"
        }
      ],
      "payable": false,
      "stateMutability": "view",
      "type": "function"
    },
    {
      "constant": true,
      "inputs": [],
      "name": "winner",
      "outputs": [
        {
          "name": "",
          "type": "address"
        }
      ],
      "payable": false,
      "stateMutability": "view",
      "type": "function"
    },
    {
      "inputs": [
        {
          "name": "_owner",
          "type": "address"
        }
      ],
      "payable": false,
      "stateMutability": "nonpayable",
      "type": "constructor"
    },
    {
      "anonymous": false,
      "inputs": [
        {
          "indexed": false,
          "name": "opponent",
          "type": "address"
        }
      ],
      "name": "GameHasOpponent",
      "type": "event"
    },
    {
      "anonymous": false,
      "inputs": [
        {
          "indexed": false,
          "name": "challenger",
          "type": "address"
        }
      ],
      "name": "GameHasChallenger",
      "type": "event"
    },
    {
      "anonymous": false,
      "inputs": [
        {
          "indexed": false,
          "name": "field",
          "type": "uint32"
        }
      ],
      "name": "MoveMade",
      "type": "event"
    },
    {
      "constant": false,
      "inputs": [],
      "name": "joinAndStartGame",
      "outputs": [],
      "payable": false,
      "stateMutability": "nonpayable",
      "type": "function"
    },
    {
      "constant": false,
      "inputs": [
        {
          "name": "x",
          "type": "uint8"
        },
        {
          "name": "y",
          "type": "uint8"
        }
      ],
      "name": "playerMove",
      "outputs": [],
      "payable": false,
      "stateMutability": "nonpayable",
      "type": "function"
    },
    {
      "constant": false,
      "inputs": [],
      "name": "lateTurnCancelGameReturnDeposit",
      "outputs": [],
      "payable": false,
      "stateMutability": "nonpayable",
      "type": "function"
    }
  ],
  "bytecode": "0x60806040526000600160146101000a81548163ffffffff021916908363ffffffff1602179055506001600460146101000a81548160ff021916908360ff1602179055504260055562055555600660006101000a81548163ffffffff021916908363ffffffff160217905550620aaaaa600660046101000a81548163ffffffff021916908363ffffffff16021790555061010060405190810160405280603f62ffffff168152602001610fc062ffffff168152602001620fc00062ffffff1681526020016130c362ffffff16815260200161c30c62ffffff16815260200162030c3062ffffff1681526020016203030362ffffff16815260200161333062ffffff16815250600790600861011392919061020f565b5034801561012057600080fd5b506040516020806110e58339810180604052810190808051906020019092919050505080600160006101000a81548173ffffffffffffffffffffffffffffffffffffffff021916908373ffffffffffffffffffffffffffffffffffffffff1602179055507f725b654097b954ed9ca5274b8028845db0cba94071a6b68a7cf8e9c1fb5867a6600160009054906101000a900473ffffffffffffffffffffffffffffffffffffffff16604051808273ffffffffffffffffffffffffffffffffffffffff1673ffffffffffffffffffffffffffffffffffffffff16815260200191505060405180910390a1506102f1565b828054828255906000526020600020906007016008900481019282156102ad5791602002820160005b8382111561027b57835183826101000a81548163ffffffff021916908362ffffff1602179055509260200192600401602081600301049283019260010302610238565b80156102ab5782816101000a81549063ffffffff021916905560040160208160030104928301926001030261027b565b505b5090506102ba91906102be565b5090565b6102ee91905b808211156102ea57600081816101000a81549063ffffffff0219169055506001016102c4565b5090565b90565b610de5806103006000396000f3006080604052600436106100af576000357c0100000000000000000000000000000000000000000000000000000000900463ffffffff1680631eb903cf146100b45780634404a4381461010b578063534db0e21461016257806361db4fcc146101b957806393694f67146101f6578063ae4ccdf31461024d578063b314946d1461027e578063c48e153414610295578063c8929b07146102c0578063ca290ddc146102f7578063dfbf53ae1461030e575b600080fd5b3480156100c057600080fd5b506100f5600480360381019080803573ffffffffffffffffffffffffffffffffffffffff169060200190929190505050610365565b6040518082815260200191505060405180910390f35b34801561011757600080fd5b5061012061037d565b604051808273ffffffffffffffffffffffffffffffffffffffff1673ffffffffffffffffffffffffffffffffffffffff16815260200191505060405180910390f35b34801561016e57600080fd5b506101776103a3565b604051808273ffffffffffffffffffffffffffffffffffffffff1673ffffffffffffffffffffffffffffffffffffffff16815260200191505060405180910390f35b3480156101c557600080fd5b506101f4600480360381019080803560ff169060200190929190803560ff1690602001909291905050506103c9565b005b34801561020257600080fd5b5061020b610968565b604051808273ffffffffffffffffffffffffffffffffffffffff1673ffffffffffffffffffffffffffffffffffffffff16815260200191505060405180910390f35b34801561025957600080fd5b5061026261098d565b604051808260ff1660ff16815260200191505060405180910390f35b34801561028a57600080fd5b506102936109a0565b005b3480156102a157600080fd5b506102aa610b6b565b6040518082815260200191505060405180910390f35b3480156102cc57600080fd5b506102d5610b71565b604051808263ffffffff1663ffffffff16815260200191505060405180910390f35b34801561030357600080fd5b5061030c610b87565b005b34801561031a57600080fd5b50610323610d93565b604051808273ffffffffffffffffffffffffffffffffffffffff1673ffffffffffffffffffffffffffffffffffffffff16815260200191505060405180910390f35b60026020528060005260406000206000915090505481565b600460009054906101000a900473ffffffffffffffffffffffffffffffffffffffff1681565b600160009054906101000a900473ffffffffffffffffffffffffffffffffffffffff1681565b6000806000806000806009600460149054906101000a900460ff1660ff16111515156103f457600080fd5b6000600360009054906101000a900473ffffffffffffffffffffffffffffffffffffffff1673ffffffffffffffffffffffffffffffffffffffff1614151561043b57600080fd5b60008060009054906101000a900473ffffffffffffffffffffffffffffffffffffffff1673ffffffffffffffffffffffffffffffffffffffff161415151561048257600080fd5b600460009054906101000a900473ffffffffffffffffffffffffffffffffffffffff1673ffffffffffffffffffffffffffffffffffffffff163373ffffffffffffffffffffffffffffffffffffffff161415156104de57600080fd5b600160009054906101000a900473ffffffffffffffffffffffffffffffffffffffff1673ffffffffffffffffffffffffffffffffffffffff16600460009054906101000a900473ffffffffffffffffffffffffffffffffffffffff1673ffffffffffffffffffffffffffffffffffffffff161461055c57600261055f565b60015b95506003870260038960ff1681151561057457fe5b06019450600060036002870260ff16600160149054906101000a900463ffffffff1663ffffffff169060020a90041663ffffffff16119350831515156105b957600080fd5b60018603600286020160ff16600163ffffffff169060020a02600160149054906101000a900463ffffffff1617600160146101000a81548163ffffffff021916908363ffffffff160217905550600160009054906101000a900473ffffffffffffffffffffffffffffffffffffffff1673ffffffffffffffffffffffffffffffffffffffff16600460009054906101000a900473ffffffffffffffffffffffffffffffffffffffff1673ffffffffffffffffffffffffffffffffffffffff161461069557600660049054906101000a900463ffffffff166106a9565b600660009054906101000a900463ffffffff165b9250600091505b60088260ff1610156107ce5760078260ff168154811015156106ce57fe5b90600052602060002090600891828204019190066004029054906101000a900463ffffffff16831663ffffffff1660078360ff1681548110151561070e57fe5b90600052602060002090600891828204019190066004029054906101000a900463ffffffff1684600160149054906101000a900463ffffffff16161663ffffffff1614905080156107c157600460009054906101000a900473ffffffffffffffffffffffffffffffffffffffff16600360006101000a81548173ffffffffffffffffffffffffffffffffffffffff021916908373ffffffffffffffffffffffffffffffffffffffff1602179055506107ce565b81806001019250506106b0565b600160009054906101000a900473ffffffffffffffffffffffffffffffffffffffff1673ffffffffffffffffffffffffffffffffffffffff16600460009054906101000a900473ffffffffffffffffffffffffffffffffffffffff1673ffffffffffffffffffffffffffffffffffffffff161461086d57600160009054906101000a900473ffffffffffffffffffffffffffffffffffffffff16610890565b6000809054906101000a900473ffffffffffffffffffffffffffffffffffffffff165b600460006101000a81548173ffffffffffffffffffffffffffffffffffffffff021916908373ffffffffffffffffffffffffffffffffffffffff1602179055506004601481819054906101000a900460ff168092919060010191906101000a81548160ff021916908360ff16021790555050426005819055507f2e7e872e853b5a7cc1499fdb7a46ce736fb4357fa6bf9bd07f944a7638a9ee1b600160149054906101000a900463ffffffff16604051808263ffffffff1663ffffffff16815260200191505060405180910390a15050505050505050565b6000809054906101000a900473ffffffffffffffffffffffffffffffffffffffff1681565b600460149054906101000a900460ff1681565b600160009054906101000a900473ffffffffffffffffffffffffffffffffffffffff1673ffffffffffffffffffffffffffffffffffffffff163373ffffffffffffffffffffffffffffffffffffffff16141515156109fd57600080fd5b60008060009054906101000a900473ffffffffffffffffffffffffffffffffffffffff1673ffffffffffffffffffffffffffffffffffffffff16141515610a4357600080fd5b336000806101000a81548173ffffffffffffffffffffffffffffffffffffffff021916908373ffffffffffffffffffffffffffffffffffffffff1602179055506000809054906101000a900473ffffffffffffffffffffffffffffffffffffffff16600460006101000a81548173ffffffffffffffffffffffffffffffffffffffff021916908373ffffffffffffffffffffffffffffffffffffffff1602179055507f8525c3ead3935f7e5b79262d690881c0b38e19e1148391f799fdd8f9c0da95396000809054906101000a900473ffffffffffffffffffffffffffffffffffffffff16604051808273ffffffffffffffffffffffffffffffffffffffff1673ffffffffffffffffffffffffffffffffffffffff16815260200191505060405180910390a1565b60055481565b600160149054906101000a900463ffffffff1681565b6000806000809054906101000a900473ffffffffffffffffffffffffffffffffffffffff1673ffffffffffffffffffffffffffffffffffffffff1614151515610bcf57600080fd5b610e106005544203111515610be357600080fd5b600460009054906101000a900473ffffffffffffffffffffffffffffffffffffffff1673ffffffffffffffffffffffffffffffffffffffff163373ffffffffffffffffffffffffffffffffffffffff1614151515610c4057600080fd5b600a600460146101000a81548160ff021916908360ff16021790555060026000600460009054906101000a900473ffffffffffffffffffffffffffffffffffffffff1673ffffffffffffffffffffffffffffffffffffffff1673ffffffffffffffffffffffffffffffffffffffff168152602001908152602001600020549050600060026000600460009054906101000a900473ffffffffffffffffffffffffffffffffffffffff1673ffffffffffffffffffffffffffffffffffffffff1673ffffffffffffffffffffffffffffffffffffffff16815260200190815260200160002081905550600460009054906101000a900473ffffffffffffffffffffffffffffffffffffffff1673ffffffffffffffffffffffffffffffffffffffff166108fc829081150290604051600060405180830381858888f19350505050158015610d8f573d6000803e3d6000fd5b5050565b600360009054906101000a900473ffffffffffffffffffffffffffffffffffffffff16815600a165627a7a72305820f0cc4c19d2973b1de0590123fd8c97f8c4f53e24c646530680a62c362a9b26610029",
  "source": "pragma solidity ^0.4.2;\n\n/// @title TicTacToe Game Contract\ncontract TicTacToe {\n  address public opponent;\n  address public challenger;\n  uint32 public gameField = uint32(0);\n\n  ///@dev mapping of user address to deposit balance\n  ///@dev depositBalances[0x123123123] = 1000000\n  mapping (address => uint ) public depositBalances; \n\n\n  address public winner;\n  address public currentPlayer;\n  uint8 public turnCount = 1;\n  ///@dev save time of users' turn\n  uint public timeAtLastTurn = now;\n\n  uint32 ODD = 0x55555;\n  uint32 EVEN = 0xAAAAA;\n\n  ///@dev HTop, HMiddle, HBottom, VLeft, VMiddle, VRight, DTL, DTR\n  uint32[] winningConditions = [0x3F, 0xFC0, 0xFC000, 0x30C3, 0xC30C, 0x30C30, 0x30303, 0x3330];\n\n  ///@dev EVENTS\n  event GameHasOpponent(address opponent);\n  event GameHasChallenger(address challenger);\n  event MoveMade(uint32 field);\n\n  ///@dev CONSTRUCTOR\n  function TicTacToe(address _owner) public {\n    challenger = _owner;\n\n    GameHasChallenger(challenger);\n  }\n\n  /// @dev Joins the game as msg.sender and start the game\n  function joinAndStartGame() public {\n    require(msg.sender != challenger);\n    require(opponent == 0);\n\n    opponent = msg.sender;\n    currentPlayer = opponent;\n\n    GameHasOpponent(opponent);\n  }\n\n  /// @dev Sets the position on the field as msg.sender\n  function playerMove (uint8 x, uint8 y) public {\n    ///@dev Game is not tied\n    require(turnCount <= 9);\n    ///@dev Game has no winner yet\n    require(winner == 0);\n    ///@dev Opponent is set\n    require(opponent != 0);\n    ///@dev msg.sender is currentPlayer\n    require(msg.sender == address(currentPlayer));\n\n    ///@dev Determine Playerindex\n    uint8 player = currentPlayer == challenger ? 1 : 2;\n\n    ///@dev Position calculation from 2d to 1d, + offset for player (zero based)\n    uint8 position = (x % 3) + (y * 3);\n\n    ///@dev Determine if cell is occupied\n    bool isOccupied = (gameField >> (position * 2) & 0x3) > 0;\n  \n    ///@dev Cell can not be occupied already (by either player)\n    require(!isOccupied);\n\n    gameField = gameField | uint32(1) << (position * 2 + (player - 1));\n\n    uint32 playerMask = currentPlayer == challenger ? ODD : EVEN;\n    for (uint8 winningIndex = 0; winningIndex < 8; winningIndex++) {\n      bool win = (gameField & playerMask & winningConditions[winningIndex]) == (playerMask & winningConditions[winningIndex]);\n\n      if (win) {\n        winner = currentPlayer;\n        break;\n      }\n    }\n\n    currentPlayer = currentPlayer == challenger ? opponent: challenger;\n    turnCount++;\n\n    timeAtLastTurn = now;\n    MoveMade(gameField);\n  }\n\n  ///@dev Can be triggered after 1H without activity\n  function lateTurnCancelGameReturnDeposit() public {\n    ///@dev if time is less than an hour, revert\n    ///@dev 1000000<now> - 800000<timeAtLastTurn> > 3600 \n    require(opponent != 0);\n    require(now - timeAtLastTurn > 1 hours);\n    require(msg.sender != currentPlayer);\n\n    ///@dev Set the turnCount to 10 to disable the game\n    turnCount = 10;\n\n    uint amount = depositBalances[currentPlayer];\n\n    depositBalances[currentPlayer] = 0;\n    currentPlayer.transfer(amount);\n  }\n}",
  "sourcePath": "/home/vikrant/IIIT/Prog_quiz/code/contracts/TicTacToe.sol",
  "compiler": {
    "name": "solc",
    "version": "0.4.24+commit.e67f0147.Emscripten.clang"
  },
  "schemaVersion": "2.0.1",
  "updatedAt": "2018-11-09T04:52:08.616Z"
}